S0110000537072696E742031302E7372656312
S11300000C9424010C94A0010C9441010C94410122
S11300100C9441010C943E040C9441010C94410154
S11300200C9441010C9441010C9441010C94410144
S11300300C9441010C9441010C9443010C94410132
S11300400C9441010C9441010C9441010C94410124
S11300500C9441010C9441010C9441010C94410114
S11300600C9441010C944101000000000000005F69
S113007000000007000700147F147F14242A7F2A3D
S11300801223130864623649552250000503000008
S1130090001C2241000041221C0014083E081408E0
S11300A0083E0808005030000008080808080060EE
S11300B060000020100804023E5149453E00427F82
S11300C0400042615149462141454B311814127F89
S11300D01027454545393C4A494930017109050312
S11300E03649494936064949291E0036360000007A
S11300F0563600000814224100141414141400414C
S11301002214080201510906324979413E7E111137
S1130110117E7F494949363E414141227F41412276
S11301201C7F494949417F090909013E4149497AEE
S11301307F0808087F00417F41002040413F017F44
S1130140081422417F404040407F020C027F7F041C
S113015008107F3E4141413E7F090909063E415155
S1130160215E7F09192946464949493101017F0128
S1130170013F4040403F1F2040201F3F4038403F48
S11301806314081463070870080761514945430064
S11301907F41410002040810200041417F00040215
S11301A00102044040404040000102040020545435
S11301B054787F48444438384444442038444448BC
S11301C07F3854545418087E0901020C5252523E8E
S11301D07F0804047800447D40002040443D007FB3
S11301E01028440000417F40007C041804787C08F7
S11301F004047838444444387C141414080814144F
S1130200187C7C080404084854545420043F444097
S1130210203C4040207C1C2040201C3C4030403C82
S113022044281028440C5050503C4464544C44001E
S11302300836410000007F00000041360800100825
S1130240081008000000000011241FBECFEFD8E002
S1130250DEBFCDBF11E0A0E0B1E0E0EBF8E102C009
S113026005900D92A434B107D9F723E0A4E4B1E0DA
S113027001C01D92AC34B207E1F70E94EA050C9468
S1130280560C0C9400001F920F920FB60F9211247B
S1130290CF92DF92EF92FF922F933F934F935F930E
S11302A06F937F938F939F93AF93BF93EF93FF933A
S11302B0C0904B01D0904C01E0904D01F0904E0164
S11302C08FEFC81AD80AE80AF80AC0924B01D092F4
S11302D04C01E0924D01F0924E01C701B60128E8AD
S11302E033E140E050E00E941C09672B682B692B26
S11302F019F481E080935001C701B60124EF31E085
S113030040E050E00E941C09672B682B692B19F40C
S113031081E080934F01FF91EF91BF91AF919F9145
S11303208F917F916F915F914F913F912F91FF90AA
S1130330EF90DF90CF900F900FBE0F901F90189505
S11303401F920F920FB60F9211248F939F93809157
S1130350490190914A01019690934A018093490181
S11303609F918F910F900FBE0F901F9018954F92F1
S11303705F926F927F92AF92BF92CF92DF92EF9291
S1130380FF920F931F93CF93DF93CDB7DEB76D9793
S11303900FB6F894DEBF0FBECDBFEB8AFC8A0D8B7F
S11303A01E8B2F8B388F498F5A8F6B8F7C8F8D8F3D
S11303B082E1EBE0F1E0DE01119601900D928A9565
S11303C0E1F7E0914801EE0FFF0B81E090E08C0F24
S11303D09D1FE80FF91F808185B9E0914801EE0F58
S11303E0FF0B81E090E08C0F9D1FE80FF91F8081C7
S11303F0918190FF04C08BB180688BB903C08BB12D
S11304008F778BB980914801843094F540904401F2
S11304105090450160904601709047017601650156
S1130420C418D508E608F7082C893D893695279520
S113043036952795A90160E070E0C416D506E60656
S1130440F70678F08F5F80934801440D551D661DB3
S1130450771D409344015093450160934601709386
S113046047018AB181608AB98BB181608BB96BC055
S1130470853074F5409044015090450160904601E8
S11304807090470176016501C418D508E608F7089D
S1130490288D398DA90160E070E0C416D506E60602
S11304A0F70678F08F5F80934801440D551D661D53
S11304B0771D409344015093450160934601709326
S11304C047018AB181608AB98BB181608BB93BC025
S11304D089307CF54090440150904501609046017C
S11304E07090470176016501C418D508E608F7083D
S11304F02E893F893695279536952795A90160E081
S113050070E0C416D506E606F70678F08F5F809390
S11305104801440D551D661D771D409344015093B9
S1130520450160934601709347018BB18E7F8BB96F
S11305300AC010924801A0924401B0924501C092B1
S11305404601D09247016D960FB6F894DEBF0FBEF8
S1130550CDBFDF91CF911F910F91FF90EF90DF906E
S1130560CF90BF90AF907F906F905F904F90089521
S11305708F929F92AF92BF92CF92DF92EF92FF92AF
S11305800F931F93CF93DF93CDB7DEB767970FB663
S1130590F894DEBF0FBECDBFFE860F87188B298B64
S11305A03A8B4B8B5C8B6D8B7E8B8F8BEE2011F09B
S11305B081E401C08DE489831A822E853F853695B6
S11305C027953695279536952795A5ECB0E20E9498
S11305D05D09929582958F7089279F7089279F93D3
S11305E08F930DE111E01F930F934E0183E0880E6A
S11305F0911C9F928F920E946C09288939893695A3
S113060027953695279536952795A5ECB0E20E9457
S11306105D09929582958F7089279F7089279F9392
S11306208F931F930F935E0195E0A90EB11CBF92A7
S1130630AF920E946C092A893B8936952795369595
S1130640279536952795A5ECB0E20E945D09929511
S113065082958F7089279F7089279F938F931F930B
S11306600F936E0187E0C80ED11CDF92CF920E94D7
S11306706C098D898F938C898F931F930F937E01BF
S113068099E0E90EF11CFF92EF920E946C098F89A8
S11306908F938E898F931F930F938E01055F1F4F46
S11306A01F930F930E946C090E94EF0665E080E09F
S11306B00E94C80761E080E291E00E94B70765E00C
S11306C08EE10E94C80761E0CE0101960E94B7073F
S11306D06FE080E00E94C80761E085E291E00E943B
S11306E0B7076FE08EE10E94C80761E0C4010E9471
S11306F0B70761E08AE291E00E94B70769E180E010
S11307000E94C80761E08CE291E00E94B70769E1AA
S11307108EE10E94C80761E0C5010E94B70761E04D
S11307208AE291E00E94B70763E280E00E94C80772
S113073061E081E391E00E94B70763E28EE10E94E9
S1130740C80761E0C6010E94B70761E08AE291E050
S11307500E94B70760915101660F862F880F880F9A
S1130760680F6B5F88E20E94C80761E086E391E04E
S11307700E94B70760E08DE20E94C80761E088E349
S113078091E00E94B70765E08DE20E94C80761E02E
S113079088E391E00E94B7076AE08DE20E94C807EF
S11307A061E088E391E00E94B7076FE08DE20E9468
S11307B0C80761E088E391E00E94B70764E18DE235
S11307C00E94C80761E088E391E00E94B70769E1ED
S11307D08DE20E94C80761E088E391E00E94B707B8
S11307E06EE18DE20E94C80761E088E391E00E9417
S11307F0B70763E28DE20E94C80761E088E391E0F5
S11308000E94B70769E183E30E94C80762E0C70159
S11308100E94B70768E287E30E94C80761E08AE3A1
S113082091E00E94B70760E083E30E94C80762E09A
S1130830C8010E94B7076FE087E30E94C80761E020
S113084080E491E00E94B7070E94CD070FB6F894A8
S1130850DEBF0FBECDBF67960FB6F894DEBF0FBEE6
S1130860CDBFDF91CF911F910F91FF90EF90DF905B
S1130870CF90BF90AF909F908F9008951F920F924A
S11308800FB60F921124EF92FF920F931F932F93A1
S11308903F934F935F936F937F938F939F93AF9304
S11308A0BF93EF93FF9349991AC0809101019091EE
S11308B00201893B9B4030F088EB9BE0909302015E
S11308C0809301018091050190910601813D97403B
S11308D030F080ED97E090930601809305014C99E8
S11308E03EC080915101813071F028F08230D1F006
S11308F0833039F134C09091000181E0911180E09E
S1130900809300012CC080910101909102018134F7
S11309102FE1920720F588519C4F90930201809318
S113092001011DC0809103019091040181342FE1E4
S11309309207A8F488519C4F90930401809303017B
S11309400EC0809105019091060181342FE1920738
S113095030F488519C4F90930601809305014D9982
S11309603EC080915101813071F028F08230D1F085
S1130970833039F134C09091000181E0911180E01D
S1130980809300012CC08091010190910201803D6F
S113099027E0920720F1885E9340909302018093B0
S11309A001011DC08091030190910401803D27E065
S11309B09207A8F0885E934090930401809303010A
S11309C00EC08091050190910601803D27E09207B9
S11309D030F0885E934090930601809305014E9910
S11309E00AC080915101833020F48F5F80935101BC
S11309F002C010925101E0900001F09001010091B9
S1130A0002011091030120910401309105014091EC
S1130A1006015091070160910801709109018091CC
S1130A200A010E94B802FF91EF91BF91AF919F918B
S1130A308F917F916F915F914F913F912F911F9172
S1130A400F91FF90EF900F900FBE0F901F9018958D
S1130A50FC012081222309F46AC0108260914901BB
S1130A6070914A0110924A0110924901CB01880FFA
S1130A70991F680F791F660F771F660F771FE0E0D5
S1130A80F1E0708767838081882309F450C080E097
S1130A9090E00E9415082AE939E945E851E40E94EA
S1130AA07B080E94E6079B01369527953695279586
S1130AB036952795A5ECB0E20E945D099295829542
S1130AC08F7089279F708927BC016F5F7F4F48EE25
S1130AD053E0649F9001659F300D749F300D112485
S1130AE030930201209301012932334230F028E28D
S1130AF033E2309302012093010148EE53E0849FD6
S1130B009001859F300D949F300D112488E293E26B
S1130B10821B930B909304018093030181309D47C2
S1130B2030F088EE93E090930401809303010895DC
S1130B30EF92FF920F931F93CF93DF93EC01888181
S1130B40882309F440C0209178003091790040E076
S1130B5050E068E17CE98FE090E00E943E09285E65
S1130B60334030930A01209309012D32314018F0AB
S1130B701092B4000FC0369B06C08091070190917B
S1130B800801892B21F08FEF8093B40003C085E521
S1130B908093B4001882E0900001F090010100916C
S1130BA0020110910301209104013091050140914B
S1130BB0060150910701609108017091090180912B
S1130BC00A010E94B802DF91CF911F910F91FF900B
S1130BD0EF9008958FEF84B987B18F7387B988E850
S1130BE08AB988B1806488B986E78BB98AE0809332
S1130BF0690093E09DBB84E08093680082E7809362
S1130C006D0082E084BD95BD99EF97BD80936E0021
S1130C1083E28093B00086E08093B10080E8809303
S1130C20B40080E480937C0087EE80937A00109275
S1130C307B0081E080937E000E949706E090000193
S1130C40F09001010091020110910301209104012F
S1130C50309105014091060150910701609108010E
S1130C607091090180910A010E94B8027894A090C1
S1130C704B01B0904C01C0904D01D0904E01E090DA
S1130C800001F090010100910201109103012091F3
S1130C9004013091050140910601509107016091D2
S1130CA008017091090180910A010E94B70180E551
S1130CB091E00E9428058FE491E00E949805D7CF27
S1130CC098B19D7F98B9662329F098B1986098B936
S1130CD090E01FC098B1977F98B9FACF47E050E0F1
S1130CE0491B5109282F30E002C0359527954A95B4
S1130CF0E2F720FF04C028B1206128B903C028B15D
S1130D002F7E28B928B1206228B928B12F7D28B9AF
S1130D109F5F983018F388B1826088B9089560E0C5
S1130D200E946006089561E00E9460060895CF93D2
S1130D30DF9387B1826087B987B1846087B987B14F
S1130D40886087B987B1806187B987B1806287B9C4
S1130D5088B1846088B988B1826088B983EC99E0ED
S1130D600197F1F700C0000088B18B7F88B98BE54B
S1130D7094E40197F1F700C0000088B1846088B959
S1130D8088B18D7F88B981E20E948F0683E10E9439
S1130D908F0686E00E948F0682EC0E948F0680E216
S1130DA00E948F0689E00E948F0680E80E948F06C9
S1130DB080E40E948F06C0E0D0E004C080E00E947E
S1130DC093062196C83F91E0D907C0F388E00E94BA
S1130DD08F068CE00E948F06DF91CF91089580E802
S1130DE00E948F0680E40E948F0610924A0310929C
S1130DF04B0380E090E005C0FC01EE5AFE4F1082E8
S1130E000196883F21E09207B8F30895262F26958E
S1130E102695269590E034E5239F800D911D11249D
S1130E20442379F0677021E030E002C0220F331FC1
S1130E306A95E2F7FC01EE5AFE4F8081282B20834D
S1130E400895677021E030E002C0220F331F6A95D5
S1130E50E2F7FC01EE5AFE4F20958081282320837F
S1130E600895EF92FF920F931F93CF93DF93E82E91
S1130E70F62E00E045C02E2D30E020523109802F9F
S1130E806F2D0E941009F901EE0FFF1FEE0FFF1FD7
S1130E90E20FF31FE80FF11DE859FF4FE491812F92
S1130EA00E941009F0E002C0F595E7958A95E2F7F3
S1130EB0E0FF0AC060914B0380914A03610F41E057
S1130EC0800F0E94060709C060914B0380914A037A
S1130ED0610F40E0800F0E9406071F5F01C010E011
S1130EE0212F30E0CE01880F991F880F991F880F9A
S1130EF0991F8C1B9D0B281739070CF4BCCF0F5F6F
S1130F00202F30E0CF2DD0E0CE01880F991F880F1D
S1130F10991F8C0F9D1F281739070CF3EAE4F3E09F
S1130F208F2D880F880F8F0D9081890F8F5F80839D
S1130F30843570F010924A03EBE4F3E08F2D880FB0
S1130F40880F880F982F9F198081890F8F5F808366
S1130F5080914B03803320F010924A0310924B038C
S1130F60DF91CF911F910F91FF90EF9008951F9300
S1130F70CF93DF93EC01162F04C02196612F0E94BA
S1130F80310788818111F9CFDF91CF911F910895A5
S1130F9080934A0360934B030895CF93DF9380E8D3
S1130FA00E948F0680E40E948F06C0E0D0E007C054
S1130FB0FE01EE5AFE4F80810E9493062196C83F9F
S1130FC081E0D807A8F3DF91CF9108950E945A08D1
S1130FD088F09F5798F0B92F9927B751B0F0E1F0F6
S1130FE0660F771F881F991F1AF0BA95C9F714C0A6
S1130FF0B13091F00E947408B1E008950C94740823
S1131000672F782F8827B85F39F0B93FCCF38695DE
S113101077956795B395D9F73EF49095809570953B
S113102061957F4F8F4F9F4F0895E89409C097FBB8
S11310303EF490958095709561957F4F8F4F9F4FAB
S11310409923A9F0F92F96E9BB279395F6958795EF
S113105077956795B795F111F8CFFAF4BB0F11F4B2
S113106060FF1BC06F5F7F4F8F4F9F4F16C0882359
S113107011F096E911C0772321F09EE8872F762F8F
S113108005C0662371F096E8862F70E060E02AF0D0
S11310909A95660F771F881FDAF7880F96958795BC
S11310A097F9089557FD9058440F551F59F05F3F25
S11310B071F04795880F97FB991F61F09F3F79F076
S11310C087950895121613061406551FF2CF4695F8
S11310D0F1DF08C0161617061806991FF1CF86957A
S11310E07105610508940895E894BB27662777275E
S11310F0CB0197F908950E948E080C94FF080E9472
S1131100F10838F00E94F80820F0952311F00C94AF
S1131110E8080C94EE0811240C9475080E945208F7
S113112070F3959FC1F3950F50E0551F629FF00136
S1131130729FBB27F00DB11D639FAA27F00DB11D4F
S1131140AA1F649F6627B00DA11D661F829F2227D8
S1131150B00DA11D621F739FB00DA11D621F839F5F
S1131160A00D611D221F749F3327A00D611D231F35
S1131170849F600D211D822F762F6A2F11249F5783
S113118050409AF0F1F088234AF0EE0FFF1FBB1F86
S1131190661F771F881F91505040A9F79E3F510545
S11311A080F00C94E8080C9475085F3FE4F3983ED3
S11311B0D4F3869577956795B795F795E7959F5FEF
S11311C0C1F7FE2B880F911D9695879597F9089581
S11311D097F99F6780E870E060E008959FEF80ECE6
S11311E0089500240A941616170618060906089589
S11311F000240A9412161306140605060895092EEF
S11312000394000C11F4882352F0BB0F40F4BF2B5D
S113121011F460FF04C06F5F7F4F8F4F9F4F08959D
S1131220991B79E004C0991F961708F0961B881F34
S11312307A95C9F780950895A1E21A2EAA1BBB1BC3
S1131240FD010DC0AA1FBB1FEE1FFF1FA217B3078E
S1131250E407F50720F0A21BB30BE40BF50B661FA4
S1131260771F881F991F1A9469F760957095809568
S113127090959B01AC01BD01CF010895052E97FB0C
S11312801EF400940E94550957FD07D00E941C09C2
S113129007FC03D04EF40C945509509540953095B5
S11312A021953F4F4F4F5F4F0895909580957095CE
S11312B061957F4F8F4F9F4F0895A29FB001B39FB9
S11312C0C001A39F700D811D1124911DB29F700D4B
S11312D0811D1124911D0895AEE0B0E0E2E7F9E02C
S11312E00C942D0C0D891E8986E08C831A83098346
S11312F08FEF9FE79E838D83AE01475E5F4F6F89BB
S1131300788DCE0101960E948E09EF81F885E00F59
S1131310F11F10822E96E4E00C94490CABE0B0E08F
S1131320E4E9F9E00C941F0C6C017B018A01FC01D7
S113133017821682838181FFCCC1CE0101963C01C4
S1131340F6019381F70193FD859193FF81917F01CC
S1131350882309F4BAC1853239F493FD859193FF4A
S113136081917F01853229F4B60190E00E94850BBA
S1131370E7CF912C212C312CFFE1F315D8F08B32DF
S113138079F038F4803279F08332A1F4232D20618E
S11313901DC08D3261F0803369F4232D216016C0A5
S11313A0832D8260382EE32DE4603E2E2AC0F32D77
S11313B0F8601DC037FC2DC020ED280F2A3040F006
S11313C08E32B9F436FC81C1232D2064322E19C02B
S11313D036FE06C08AE0989E200D1124922E11C07C
S11313E0EAE02E9E200D1124222EF32DF0623F2ED2
S11313F008C08C3621F4832D8068382E02C08836CC
S113140041F4F70193FD859193FF81917F0181114F
S1131410B3CF982F9F7D9554933028F40C5F1F4FC2
S11314209FE399830DC0833631F0833771F08335A0
S113143009F059C021C0F801808189830E5F1F4FD4
S113144088248394912C530113C02801F2E04F0E99
S1131450511CF801A080B18036FE03C0692D70E0F4
S113146002C06FEF7FEFC5010E947A0B4C0182012D
S1131470F32DFF773F2E16C0280122E0420E511CA7
S1131480F801A080B18036FE03C0692D70E002C06F
S11314906FEF7FEFC5010E946F0B4C01F32DF068D5
S11314A03F2E820133FC1BC0822D90E088169906E2
S11314B0B0F4B60180E290E00E94850B2A94F4CF48
S11314C0F50137FC859137FE81915F01B60190E00B
S11314D00E94850B21102A9421E0821A910881141C
S11314E0910471F7E8C0843611F0893641F5F801AA
S11314F037FE07C060817181828193810C5F1F4F29
S113150008C060817181072E000C880B990B0E5F57
S11315101F4FF32DFF763F2E97FF09C090958095BE
S1131520709561957F4F8F4F9F4FF0683F2E2AE053
S113153030E0A3010E94C10B882E861845C0853770
S113154031F4232D2F7EB22E2AE030E025C0932DD6
S1131550997FB92E8F36C1F018F4883579F0B5C06B
S1131560803719F0883721F0B0C0E92FE061BE2E32
S1131570B4FE0DC0FB2DF460BF2E09C034FE0AC0BA
S1131580292F2660B22E06C028E030E005C020E1F5
S113159030E002C020E132E0F801B7FE07C060810C
S11315A07181828193810C5F1F4F06C060817181BC
S11315B080E090E00E5F1F4FA3010E94C10B882EB4
S11315C08618FB2DFF773F2E36FE0DC0232D2E7F70
S11315D0A22E891458F434FE0BC032FC09C0832DAA
S11315E08E7EA82E05C0B82CA32C03C0B82C01C035
S11315F0B92CA4FE0FC0FE01E80DF11D80818033DB
S113160021F49A2D997EA92E09C0A2FE06C0B39496
S1131610B39404C08A2D867809F0B394A3FC11C056
S1131620A0FE06C0B21488F4280C922C9B180EC09D
S1131630B21460F4B60180E290E00E94850BB3948A
S1131640F7CFB21418F42B1802C0982C212CA4FE46
S113165010C0B60180E390E00E94850BA2FE17C083
S1131660A1FC03C088E790E002C088E590E0B601E1
S11316700CC08A2D867859F0A1FE02C08BE201C00D
S113168080E2A7FC8DE2B60190E00E94850B8914EC
S113169038F4B60180E390E00E94850B9A94F7CF6A
S11316A08A94F301E80DF11D8081B60190E00E9457
S11316B0850B8110F5CF222009F442CEB60180E2D9
S11316C090E00E94850B2A94F6CFF60186819781DB
S11316D002C08FEF9FEF2B96E2E10C943B0CFC01D0
S11316E00590615070400110D8F7809590958E0F49
S11316F09F1F0895FC016150704001900110D8F7BC
S1131700809590958E0F9F1F08950F931F93CF93ED
S1131710DF93FB01238121FD03C08FEF9FEF2CC0DA
S113172022FF16C046815781248135814217530711
S113173044F4A081B1819D012F5F3F4F3183208309
S11317408C93268137812F5F3F4F3783268314C0C4
S11317508B01EC01FB010084F185E02D0995892BB7
S1131760E1F6D80116968D919C91179701961796DC
S11317709C938E931697CE01DF91CF911F910F9179
S11317800895FA01AA27283051F1203181F1E89413
S11317906F936E7F6E5F7F4F8F4F9F4FAF4FB1E060
S11317A03ED0B4E03CD0670F781F891F9A1FA11D5B
S11317B0680F791F8A1F911DA11D6A0F711D811D5C
S11317C0911DA11D20D009F468943F912AE0269F21
S11317D011243019305D3193DEF6CF010895462F80
S11317E04770405D4193B3E00FD0C9F7F6CF462F61
S11317F04F70405D4A3318F0495D31FD40524193CA
S113180002D0A9F7EACFB4E0A69597958795779586
S11318106795BA95C9F700976105710508959B010D
S1131820AC010A2E06945795479537952795BA9596
S1131830C9F7620F731F841F951FA01D08952F926F
S11318403F924F925F926F927F928F929F92AF924C
S1131850BF92CF92DF92EF92FF920F931F93CF9399
S1131860DF93CDB7DEB7CA1BDB0B0FB6F894DEBF30
S11318700FBECDBF09942A88398848885F846E8456
S11318807D848C849B84AA84B984C884DF80EE80A0
S1131890FD800C811B81AA81B981CE0FD11D0FB6A9
S11318A0F894DEBF0FBECDBFED010895F894FFCFCD
S11318B0008813B80BE803000000000F00070003C2
S11318C00001000001F000700030001000257500D8
S11318D04D6F646F00542E5664007300542E566D81
S11318E000542E416D003C007C00632F6D696E0036
S10718F06C75780097
S9030000FC
